:0300000002000EED
:0C000E00787FE4F6D8FD758109020055EA
:03000300010800F1
:0C00EC007F0F7E027DEBDDFEDEFCDFFA04
:0100F80022E5
:1000D7005389F0438901758A33758CFEC28DD28CA2
:0500E700D2AFD2A922F6
:1000BC001200D7D2A4750901750905E4F5081200E0
:0B00CC00EC750901F5081200EC80ED56
:03000B0002009A56
:10009A00C0E0C0D00508758A33758CFEE508B5093D
:1000AA0002C2A4E508B42805D2A4750800D0D0D0AD
:0200BA00E03232
:10001A000200BCE493A3F8E493A34003F68001F240
:10002A0008DFF48029E493A3F85407240CC8C333E7
:10003A00C4540F4420C8834004F456800146F6DFB6
:10004A00E4800B0102040810204080900003E47E43
:10005A00019360BCA3FF543F30E509541FFEE493AB
:10006A00A360010ECF54C025E060A840B8E493A372
:10007A00FAE493A3F8E493A3C8C582C8CAC583CA9D
:10008A00F0A3C8C582C8CAC583CADFE9DEE780BE55
:0100060000F9
:00000001FF
