:0300000002000EED
:0C000E00787FE4F6D8FD75810C020055E7
:0F013E0068656C6C6F2C776F726C64210D0A0012
:100111001201291200DEE50C60FC7BFF7A01793EB9
:0801210012009AE4F50C80EED7
:06000300010B00010C00DE
:100129005389F0438901758CDCE4F58AC28DD28C40
:05013900D2AFD2A922A3
:03000B000200C22E
:1000C200C0E0C0D0050BE50BB46406750C01750BDE
:0C00D20000758CDC758A00D0D0D0E032C4
:1000DE0053877F759840758E0153890F438920751C
:0A00EE008DFD758BFDC2ABD28E2292
:10009A008B088A09890AAB08AA09A90A1200F8601A
:1000AA0016050AE50A7002050914F91200F8F5990D
:0800BA003099FDC29980DF229C
:10001A00020111E493A3F8E493A34003F68001F2EA
:10002A0008DFF48029E493A3F85407240CC8C333E7
:10003A00C4540F4420C8834004F456800146F6DFB6
:10004A00E4800B0102040810204080900003E47E43
:10005A00019360BCA3FF543F30E509541FFEE493AB
:10006A00A360010ECF54C025E060A840B8E493A372
:10007A00FAE493A3F8E493A3C8C582C8CAC583CA9D
:10008A00F0A3C8C582C8CAC583CADFE9DEE780BE55
:0100090000F6
:1000F800BB010689828A83E0225002E722BBFE0206
:09010800E32289828A83E4932238
:00000001FF
