:0300000002000EED
:0C000E00787FE4F6D8FD758109020055EA
:10009A001200F21200D8E50960FC759961AF99BFA8
:1000AA004F04C2B78005BF5302D2B7C298E4F5091C
:0200BA0080E4E0
:06000300010900010800E4
:1000F2005389F0438901758CDCE4F58AC28DD28C78
:05010200D2AFD2A922DA
:03000B000200BC34
:1000BC00C0E0C0D00508E508B464067509017508F0
:0C00CC0000758CDC758A00D0D0D0E032CA
:1000D80053877F758E0175985053890F4389207512
:0A00E8008DFD758BFDC2ABD28E2298
:10001A0002009AE493A3F8E493A34003F68001F262
:10002A0008DFF48029E493A3F85407240CC8C333E7
:10003A00C4540F4420C8834004F456800146F6DFB6
:10004A00E4800B0102040810204080900003E47E43
:10005A00019360BCA3FF543F30E509541FFEE493AB
:10006A00A360010ECF54C025E060A840B8E493A372
:10007A00FAE493A3F8E493A3C8C582C8CAC583CA9D
:10008A00F0A3C8C582C8CAC583CADFE9DEE780BE55
:0100090000F6
:00000001FF
