:030000000200E11A
:0C00E100787FE4F6D8FD75811B02012831
:10026E0012000E120234D2B7D2B6E51B60FC75999D
:06027E0061E4F51B80F4B1
:06028400011B00011A003D
:10000E005389F0438901758CDCE4F58AC28DD28C5C
:05001E00D2AFD2A922BF
:03000B000202529C
:10025200C0E0C0D0051AE51AB46406751B01751A10
:0C02620000758CDC758A00D0D0D0E03232
:060003004F5000534800BD
:03028A000114005C
:1002340053877F758E0175985053890F43892075B4
:0E0244008DFD758BFDC2ABD28ED2AFD2AC2237
:03002300020026B2
:10002600C0E0C0F0C083C082C0D075D000C000C0A0
:0D00360001C002C003C004C005C006C00721
:10004300309879C298AF14051474152FF8A699E562
:1000530014B405127514007E007F057D007B007AC1
:100063000079151201EF750BFF750C00750D037BFD
:10007300007A00791512016DEA494B6014C2B77515
:1000830014007E007F057D007B007A007915120144
:10009300EF750BFF750C00750D067B007A00791563
:1000A30012016DEA494B6014D2B77514007E007FCC
:1000B300057D007B007A0079151201EF309904C2A7
:0300C30099B2B639
:1000C600D007D006D005D004D003D002D001D0008E
:0B00D600D0D0D082D083D0F0D0E03238
:1000ED0002026EE493A3F8E493A34003F68001F2B9
:1000FD0008DFF48029E493A3F85407240CC8C33314
:10010D00C4540F4420C8834004F456800146F6DFE2
:10011D00E4800B0102040810204080900284E47EEC
:10012D00019360BCA3FF543F30E509541FFEE493D7
:10013D00A360010ECF54C025E060A840B8E493A39E
:10014D00FAE493A3F8E493A3C8C582C8CAC583CAC9
:10015D00F0A3C8C582C8CAC583CADFE9DEE780BE81
:01028D000070
:10016D008B088A09890AAB0BAA0CA90D12021B6018
:10017D0063AB08AA09A90A12021B605F850B0E85E5
:10018D000C0F850D108B118A128913AB0EAA0FA9B6
:10019D001012021BFF6023AB11AA12A91312021B2E
:1001AD006F7017042510F510E4350FF50F74012548
:1001BD0013F513E43512F51280D1AB0EAA0FA91069
:1001CD0012021B7002800D7401250AF50AE435092F
:1001DD00F509809DAB08AA09A90A227B007A00794E
:0201ED000022EE
:1001EF00EF4E6012EF60010EEDBB010B89828A8327
:1001FF00F0A3DFFCDEFA2289F05007F709DFFCA934
:0C020F00F022BBFEFCF309DFFCA9F0228A
:10021B00BB010689828A83E0225002E722BBFE02E1
:09022B00E32289828A83E4932214
:00000001FF
