:0300000002001EDD
:0C001E00787FE4F6D8FD758108020065CB
:0300CC0001080028
:1000030053890F438910758DDCE4F58BC28FD28E33
:05001300D2ABD2AF22C8
:0700C500D2B712000380FE18
:03001B000200AA36
:1000AA00C0E0C0D00508758DDC758B00E508B46426
:0B00BA0005B2B7750800D0D0D0E032CE
:10002A000200C5E493A3F8E493A34003F68001F227
:10003A0008DFF48029E493A3F85407240CC8C333D7
:10004A00C4540F4420C8834004F456800146F6DFA6
:10005A00E4800B01020408102040809000CCE47E6A
:10006A00019360BCA3FF543F30E509541FFEE4939B
:10007A00A360010ECF54C025E060A840B8E493A362
:10008A00FAE493A3F8E493A3C8C582C8CAC583CA8D
:10009A00F0A3C8C582C8CAC583CADFE9DEE780BE45
:0100CF000030
:00000001FF
