:03000000020026D5
:0C002600787FE4F6D8FD75810902006DBA
:1001100012000E1200D6D2B6E50960FC759961E4B2
:04012000F50980F469
:06000300010900010800E4
:10000E005389F0438901758CDCE4F58AC28DD28C5C
:05001E00D2AFD2A922BF
:03000B000200F4FC
:1000F400C0E0C0D00508E508B464067509017508B8
:0C01040000758CDC758A00D0D0D0E03291
:1000D60053877F758E0175985053890F4389207514
:0E00E6008DFD758BFDC2ABD28ED2AFD2AC2297
:030023000200B226
:0700B200C0D075D000C007AB
:1000B900AF9930980CC298BF4F02C2B7BF5302D252
:0800C900B7309904C299B2B6E8
:0500D100D007D0D03281
:10003200020110E493A3F8E493A34003F68001F2D3
:1000420008DFF48029E493A3F85407240CC8C333CF
:10005200C4540F4420C8834004F456800146F6DF9E
:10006200E4800B0102040810204080900003E47E2B
:10007200019360BCA3FF543F30E509541FFEE49393
:10008200A360010ECF54C025E060A840B8E493A35A
:10009200FAE493A3F8E493A3C8C582C8CAC583CA85
:1000A200F0A3C8C582C8CAC583CADFE9DEE780BE3D
:0100090000F6
:00000001FF
