:0300000002028871
:0C028800787FE4F6D8FD75810F020218A3
:0702A60053890F4389102268
:08029E00E4F58DF58BD28E22F0
:0302B200C28E22D7
:0402AD007F02DFFEEF
:0102B100222A
:0A029400C2A2D2A21202ADC2A22241
:100218001202A6D2B712029430A3FD12029E20A3A6
:10022800FD1202B2AF8DEFFEAD8B7C00E42DFDEC2C
:100238003EFCE41201877B487AE1798A783F120014
:10024800038F0B8E0A8D098C087F967E437D8B7CED
:100258003CAB0BAA0AA909A8081200038F0F8E0E3F
:100268008D0D8C0CE4FFFE7D207C41AB0FAA0EA9FE
:100278000DA80C1201095004C2B78099D2B7809515
:10000300EC4D6011E8497017ED33EC3304600DE4F7
:10001300FCFFFEFD22E933E8330470F80201F51218
:1000230001C058046009E4CC248150062850090219
:1000330001FF2840030201FCC0E0EB4A7044B98091
:1000430006D0E0FB0201EBEF4E701CBD8008EBFF16
:10005300EAFEE9FD80EBE98DF0A4FEE5F00200EC99
:10006300E9CDF9EAFEEBFFEF89F0A4FCE5F0CE89D8
:10007300F0A42EFFE435F0CD89F0A42DFEE435F095
:100083008067EF4E7005BD80D780C3EF8BF0A4ACC3
:10009300F0EE8BF0A42CFCE435F0F8EF8AF0A42CFE
:1000A300E5F038FCE433CB8DF0A42CFCE5F03BF811
:1000B300EE8AF0A42CFCE5F038F8E433CF89F0A401
:1000C3002CFCE5F038CF3400CE89F0A42FFFE5F007
:1000D3003EFEE433C98DF0A42EFEE5F039CD8AF05F
:1000E300A42FFFE5F03EFEE43DFD33D0E0FB5007D7
:1000F3000BBB000F0201FFEC2CFCEF33FFEE33FED2
:06010300ED33FD0201D7FF
:1001090074F8CC6480CCC86480C8F58204604FC39D
:10011900EB9FF5F0EA9E42F0E99D42F0E89C45F03C
:10012900603C501DE5825FFFE582D313CB5BCBF4C6
:100139002B5582FB50280ABA002409B900200880EF
:100149001DE5825BFBE582D313CF5FCFF4C3132F89
:100159005582FF50090EBE00050DBD00010CC3EB11
:100169009FF5F0EA9E42F0E99D42F0E89C45F06077
:0901790007CC4820E701B3EC2299
:1001820075F020800E75F010800575F0087D007EF8
:10019200007F003392D530D50312020AEC334010AF
:1001A200EF33FFEE33FEED33FDEC33FCD5F0ED2201
:0E01B200E5F0247EA2D513CC92E7CDCEFF223D
:1001C000E9D2E7C933E833F892D5EDD2E7CD33EC85
:0701D00033FC5002B2D522FE
:1001D700EC30E7100FBF000C0EBE00080DBD000489
:1001E7000BEB6014A2D5EB13FCED92E7FD2274FF35
:1001F700FCFDFEFF22E480F8A2D574FF13FC7D808E
:03020700E480EFA1
:0E020A00C3E49FFFE49EFEE49DFDE49CFC2205
:00000001FF
