:03000000020026D5
:0C002600787FE4F6D8FD75812102006DA2
:10012B0012000E12014FD2B7E52160FC7B007A0062
:10013B007908120103E51C543FFFBF0402C2B7E468
:04014B00F52180E436
:0601A40001200001210012
:10000E005389F0438901758CDCE4F58AC28DD28C5C
:05001E00D2AFD2A922BF
:03000B0002016F80
:10016F00C0E0C0D00520E520B464067520007521DD
:0C017F0001758CDC758A00D0D0D0E03215
:0301AA00011C0035
:10014F0053877F758E0175985053890F438920759A
:10015F008DFD758BFDC2ABC28FD28ED2AFD2AC22CA
:100103008B1D8A1E891FAB1DAA1EA91F12018B609E
:1001130016051FE51F7002051E14F912018BF599D0
:080123003099FDC29980DF2232
:030023000200B226
:0D00B200C0E0C0D075D000C000C006C0077F
:1000BF00AF99309834C298E51C20E72D30E60ABF7F
:1000CF000A05431C808022801DBF0D05431C408004
:1000DF0018AE1C051CEE543F2408F8A607E51C5467
:0900EF003FD394144003751C007A
:0B00F800D007D006D000D0D0D0E032FE
:1000320002012BE493A3F8E493A34003F68001F2B8
:1000420008DFF48029E493A3F85407240CC8C333CF
:10005200C4540F4420C8834004F456800146F6DF9E
:10006200E4800B01020408102040809001A4E47E89
:10007200019360BCA3FF543F30E509541FFEE49393
:10008200A360010ECF54C025E060A840B8E493A35A
:10009200FAE493A3F8E493A3C8C582C8CAC583CA85
:1000A200F0A3C8C582C8CAC583CADFE9DEE780BE3D
:0101AD000051
:10018B00BB010689828A83E0225002E722BBFE0272
:09019B00E32289828A83E49322A5
:00000001FF
