:03000000020223D6
:0C022300787FE4F6D8FD75810F02026AB6
:0C037D00010A00010B0101090001080049
:1002F7001203581203BE1203D2D2971203CCEF6037
:10030700151202AFE4FBFA7920784112011460025A
:100317005004E508600E12036D120397E4F5088593
:0F0327000B0980D71203C512038A850B0980CCFE
:040006007F02DFFE98
:01000A0022D3
:0C038A007F037E1A7DDFDDFEDEFCDFFA63
:010396002244
:0C0397007F0F7E027DEBDDFEDEFCDFFA56
:0103A3002237
:100358005389F0438901758CFE758A33C28DD28C1E
:05036800D2AFD2A92272
:0703BE0053890F438910224F
:0803AE00E4F58DF58BD28E22DF
:0303DB00C28E22AD
:03000B00020336B7
:10033600C0E0C0D0050AE50AB50B02C2A4E50AB4BE
:100346002805D2A4750A00758CFE758A33D0D0D0E4
:02035600E03293
:10036D00750B05E509650B60061203B6E4F50A2267
:0703C500750B01E4F50A22AB
:0A03A400C2A2D2A2120006C2A222D9
:1002AF001203A430A3FD1203AE20A3FD1203DBAF94
:1002BF008DEFFEAD8B7C00E42DFDEC3EFCE41201D6
:1002CF00927B487AE1798A783F12000E8F0F8E0E5B
:1002DF008D0D8C0C7F967E437D8B7C3CAB0FAA0ED5
:0702EF00A90DA80C12000E7E
:0102F60022E5
:0603CC00A2A1E433FF22B0
:0503D200D2A8C2882240
:030003000203D71E
:0403D7007508013272
:0803B600C29712038AD29722BC
:10000E00EC4D6011E8497017ED33EC3304600DE4EC
:10001E00FCFFFEFD22E933E8330470F80202001201
:10002E0001CB58046009E4CC248150062850090203
:10003E00020A284003020207C0E0EB4A7044B9806E
:10004E0006D0E0FB0201F6EF4E701CBD8008EBFF00
:10005E00EAFEE9FD80EBE98DF0A4FEE5F00200F783
:10006E00E9CDF9EAFEEBFFEF89F0A4FCE5F0CE89CD
:10007E00F0A42EFFE435F0CD89F0A42DFEE435F08A
:10008E008067EF4E7005BD80D780C3EF8BF0A4ACB8
:10009E00F0EE8BF0A42CFCE435F0F8EF8AF0A42CF3
:1000AE00E5F038FCE433CB8DF0A42CFCE5F03BF806
:1000BE00EE8AF0A42CFCE5F038F8E433CF89F0A4F6
:1000CE002CFCE5F038CF3400CE89F0A42FFFE5F0FC
:1000DE003EFEE433C98DF0A42EFEE5F039CD8AF054
:1000EE00A42FFFE5F03EFEE43DFD33D0E0FB5007CC
:1000FE000BBB000F02020AEC2CFCEF33FFEE33FEBB
:06010E00ED33FD0201E2E9
:1001140074F8CC6480CCC86480C8F58204604FC392
:10012400EB9FF5F0EA9E42F0E99D42F0E89C45F031
:10013400603C501DE5825FFFE582D313CB5BCBF4BB
:100144002B5582FB50280ABA002409B900200880E4
:100154001DE5825BFBE582D313CF5FCFF4C3132F7E
:100164005582FF50090EBE00050DBD00010CC3EB06
:100174009FF5F0EA9E42F0E99D42F0E89C45F0606C
:0901840007CC4820E701B3EC228E
:10018D0075F020800E75F010800575F0087D007EED
:10019D00007F003392D530D503120215EC33401099
:1001AD00EF33FFEE33FEED33FDEC33FCD5F0ED22F6
:0E01BD00E5F0247EA2D513CC92E7CDCEFF2232
:1001CB00E9D2E7C933E833F892D5EDD2E7CD33EC7A
:0701DB0033FC5002B2D522F3
:1001E200EC30E7100FBF000C0EBE00080DBD00047E
:1001F2000BEB6014A2D5EB13FCED92E7FD2274FF2A
:10020200FCFDFEFF22E480F8A2D574FF13FC7D8082
:03021200E480EF96
:10022F000202F7E493A3F8E493A34003F68001F2EC
:10023F0008DFF48029E493A3F85407240CC8C333D0
:10024F00C4540F4420C8834004F456800146F6DF9F
:10025F00E4800B010204081020408090037DE47EAF
:10026F00019360BCA3FF543F30E509541FFEE49394
:10027F00A360010ECF54C025E060A840B8E493A35B
:10028F00FAE493A3F8E493A3C8C582C8CAC583CA86
:10029F00F0A3C8C582C8CAC583CADFE9DEE780BE3E
:010389000073
:0E021500C3E49FFFE49EFEE49DFDE49CFC22FA
:00000001FF
